{
  "_format": "hh-sol-artifact-1",
  "contractName": "WavePortal",
  "sourceName": "contracts/WavePortal.sol",
  "abi": [
    {
      "inputs": [],
      "stateMutability": "nonpayable",
      "type": "constructor"
    },
    {
      "inputs": [],
      "name": "getTotalWaves",
      "outputs": [
        {
          "internalType": "uint256",
          "name": "",
          "type": "uint256"
        }
      ],
      "stateMutability": "view",
      "type": "function"
    },
    {
      "inputs": [],
      "name": "printTotalWaves",
      "outputs": [
        {
          "internalType": "string[999]",
          "name": "",
          "type": "string[999]"
        }
      ],
      "stateMutability": "view",
      "type": "function"
    },
    {
      "inputs": [
        {
          "internalType": "string",
          "name": "wave_note",
          "type": "string"
        }
      ],
      "name": "wave",
      "outputs": [],
      "stateMutability": "nonpayable",
      "type": "function"
    }
  ],
  "bytecode": "0x60806040523480156200001157600080fd5b50620000416040518060600160405280603f81526020016200106c603f91396200004760201b6200031e1760201c565b620001d1565b620000e7816040516024016200005e9190620001ad565b6040516020818303038152906040527f41304fac000000000000000000000000000000000000000000000000000000007bffffffffffffffffffffffffffffffffffffffffffffffffffffffff19166020820180517bffffffffffffffffffffffffffffffffffffffffffffffffffffffff8381831617835250505050620000ea60201b60201c565b50565b60008151905060006a636f6e736f6c652e6c6f679050602083016000808483855afa5050505050565b600081519050919050565b600082825260208201905092915050565b60005b838110156200014f57808201518184015260208101905062000132565b60008484015250505050565b6000601f19601f8301169050919050565b6000620001798262000113565b6200018581856200011e565b9350620001978185602086016200012f565b620001a2816200015b565b840191505092915050565b60006020820190508181036000830152620001c981846200016c565b905092915050565b610e8b80620001e16000396000f3fe608060405234801561001057600080fd5b50600436106100415760003560e01c80633f3fddce14610046578063449d46c0146100645780639a2cdc0814610080575b600080fd5b61004e61009e565b60405161005b919061072a565b60405180910390f35b61007e60048036038101906100799190610895565b61026e565b005b6100886102d3565b60405161009591906108f7565b60405180910390f35b6100a66105ba565b6000600190505b60005481116101a7576101946040518060400160405280601581526020017f57617665206e756d626572202564206973202573200000000000000000000000815250826001846103e7811061010557610104610912565b5b01805461011190610970565b80601f016020809104026020016040519081016040528092919081815260200182805461013d90610970565b801561018a5780601f1061015f5761010080835404028352916020019161018a565b820191906000526020600020905b81548152906001019060200180831161016d57829003601f168201915b50505050506103b7565b808061019f906109d0565b9150506100ad565b5060016103e780602002604051908101604052809291906000905b828210156102655783820180546101d890610970565b80601f016020809104026020016040519081016040528092919081815260200182805461020490610970565b80156102515780601f1061022657610100808354040283529160200191610251565b820191906000526020600020905b81548152906001019060200180831161023457829003601f168201915b5050505050815260200190600101906101c2565b50505050905090565b60016000808282546102809190610a18565b925050819055508060016000546103e7811061029f5761029e610912565b5b0190816102ac9190610bf8565b506102d0604051806060016040528060248152602001610e32602491393383610456565b50565b60006103166040518060400160405280601781526020017f5765206861766520256420746f74616c207761766573210000000000000000008152506000546104f5565b600054905090565b6103b4816040516024016103329190610d14565b6040516020818303038152906040527f41304fac000000000000000000000000000000000000000000000000000000007bffffffffffffffffffffffffffffffffffffffffffffffffffffffff19166020820180517bffffffffffffffffffffffffffffffffffffffffffffffffffffffff8381831617835250505050610591565b50565b6104518383836040516024016103cf93929190610d36565b6040516020818303038152906040527f5970e089000000000000000000000000000000000000000000000000000000007bffffffffffffffffffffffffffffffffffffffffffffffffffffffff19166020820180517bffffffffffffffffffffffffffffffffffffffffffffffffffffffff8381831617835250505050610591565b505050565b6104f083838360405160240161046e93929190610dbc565b6040516020818303038152906040527fe0e9ad4f000000000000000000000000000000000000000000000000000000007bffffffffffffffffffffffffffffffffffffffffffffffffffffffff19166020820180517bffffffffffffffffffffffffffffffffffffffffffffffffffffffff8381831617835250505050610591565b505050565b61058d828260405160240161050b929190610e01565b6040516020818303038152906040527fb60e72cc000000000000000000000000000000000000000000000000000000007bffffffffffffffffffffffffffffffffffffffffffffffffffffffff19166020820180517bffffffffffffffffffffffffffffffffffffffffffffffffffffffff8381831617835250505050610591565b5050565b60008151905060006a636f6e736f6c652e6c6f679050602083016000808483855afa5050505050565b60405180617ce001604052806103e7905b60608152602001906001900390816105cb5790505090565b60006103e79050919050565b600081905092915050565b6000819050919050565b600081519050919050565b600082825260208201905092915050565b60005b8381101561063e578082015181840152602081019050610623565b60008484015250505050565b6000601f19601f8301169050919050565b600061066682610604565b610670818561060f565b9350610680818560208601610620565b6106898161064a565b840191505092915050565b60006106a0838361065b565b905092915050565b6000602082019050919050565b60006106c0826105e3565b6106ca81856105ef565b9350836020820285016106dc856105fa565b8060005b8581101561071857848403895281516106f98582610694565b9450610704836106a8565b925060208a019950506001810190506106e0565b50829750879550505050505092915050565b6000602082019050818103600083015261074481846106b5565b905092915050565b6000604051905090565b600080fd5b600080fd5b600080fd5b600080fd5b7f4e487b7100000000000000000000000000000000000000000000000000000000600052604160045260246000fd5b6107a28261064a565b810181811067ffffffffffffffff821117156107c1576107c061076a565b5b80604052505050565b60006107d461074c565b90506107e08282610799565b919050565b600067ffffffffffffffff821115610800576107ff61076a565b5b6108098261064a565b9050602081019050919050565b82818337600083830152505050565b6000610838610833846107e5565b6107ca565b90508281526020810184848401111561085457610853610765565b5b61085f848285610816565b509392505050565b600082601f83011261087c5761087b610760565b5b813561088c848260208601610825565b91505092915050565b6000602082840312156108ab576108aa610756565b5b600082013567ffffffffffffffff8111156108c9576108c861075b565b5b6108d584828501610867565b91505092915050565b6000819050919050565b6108f1816108de565b82525050565b600060208201905061090c60008301846108e8565b92915050565b7f4e487b7100000000000000000000000000000000000000000000000000000000600052603260045260246000fd5b7f4e487b7100000000000000000000000000000000000000000000000000000000600052602260045260246000fd5b6000600282049050600182168061098857607f821691505b60208210810361099b5761099a610941565b5b50919050565b7f4e487b7100000000000000000000000000000000000000000000000000000000600052601160045260246000fd5b60006109db826108de565b91507fffffffffffffffffffffffffffffffffffffffffffffffffffffffffffffffff8203610a0d57610a0c6109a1565b5b600182019050919050565b6000610a23826108de565b9150610a2e836108de565b9250828201905080821115610a4657610a456109a1565b5b92915050565b60008190508160005260206000209050919050565b60006020601f8301049050919050565b600082821b905092915050565b600060088302610aae7fffffffffffffffffffffffffffffffffffffffffffffffffffffffffffffffff82610a71565b610ab88683610a71565b95508019841693508086168417925050509392505050565b6000819050919050565b6000610af5610af0610aeb846108de565b610ad0565b6108de565b9050919050565b6000819050919050565b610b0f83610ada565b610b23610b1b82610afc565b848454610a7e565b825550505050565b600090565b610b38610b2b565b610b43818484610b06565b505050565b5b81811015610b6757610b5c600082610b30565b600181019050610b49565b5050565b601f821115610bac57610b7d81610a4c565b610b8684610a61565b81016020851015610b95578190505b610ba9610ba185610a61565b830182610b48565b50505b505050565b600082821c905092915050565b6000610bcf60001984600802610bb1565b1980831691505092915050565b6000610be88383610bbe565b9150826002028217905092915050565b610c0182610604565b67ffffffffffffffff811115610c1a57610c1961076a565b5b610c248254610970565b610c2f828285610b6b565b600060209050601f831160018114610c625760008415610c50578287015190505b610c5a8582610bdc565b865550610cc2565b601f198416610c7086610a4c565b60005b82811015610c9857848901518255600182019150602085019450602081019050610c73565b86831015610cb55784890151610cb1601f891682610bbe565b8355505b6001600288020188555050505b505050505050565b600082825260208201905092915050565b6000610ce682610604565b610cf08185610cca565b9350610d00818560208601610620565b610d098161064a565b840191505092915050565b60006020820190508181036000830152610d2e8184610cdb565b905092915050565b60006060820190508181036000830152610d508186610cdb565b9050610d5f60208301856108e8565b8181036040830152610d718184610cdb565b9050949350505050565b600073ffffffffffffffffffffffffffffffffffffffff82169050919050565b6000610da682610d7b565b9050919050565b610db681610d9b565b82525050565b60006060820190508181036000830152610dd68186610cdb565b9050610de56020830185610dad565b8181036040830152610df78184610cdb565b9050949350505050565b60006040820190508181036000830152610e1b8185610cdb565b9050610e2a60208301846108e8565b939250505056fe25732068617320776176656420776974682074686973206d6573736167653a2025732021a2646970667358221220f87cfb30df1ec0380f66746b27f8c614f652785993c759bc498bd45befb8480664736f6c634300081100335f2d5f2d5f2d5f2d5f2d5f2d5f2d5f2d5f2d5f2d5f2d575f412d565f452d505f4f2d525f542d415f4c2d5f2d5f2d5f2d5f2d5f2d5f2d5f2d5f2d5f2d5f2d5f",
  "linkReferences": {},
  "deployedLinkReferences": {}
}